{
  "address": "0xB7D783c9B86727B45dFCD1980E7846a861149FA7",
  "abi": [
    {
      "inputs": [
        {
          "internalType": "address",
          "name": "_CryptoDevToken",
          "type": "address"
        }
      ],
      "stateMutability": "nonpayable",
      "type": "constructor"
    },
    {
      "anonymous": false,
      "inputs": [
        {
          "indexed": true,
          "internalType": "address",
          "name": "owner",
          "type": "address"
        },
        {
          "indexed": true,
          "internalType": "address",
          "name": "spender",
          "type": "address"
        },
        {
          "indexed": false,
          "internalType": "uint256",
          "name": "value",
          "type": "uint256"
        }
      ],
      "name": "Approval",
      "type": "event"
    },
    {
      "anonymous": false,
      "inputs": [
        {
          "indexed": true,
          "internalType": "address",
          "name": "from",
          "type": "address"
        },
        {
          "indexed": true,
          "internalType": "address",
          "name": "to",
          "type": "address"
        },
        {
          "indexed": false,
          "internalType": "uint256",
          "name": "value",
          "type": "uint256"
        }
      ],
      "name": "Transfer",
      "type": "event"
    },
    {
      "inputs": [
        {
          "internalType": "uint256",
          "name": "_amount",
          "type": "uint256"
        }
      ],
      "name": "addLiquidity",
      "outputs": [
        {
          "internalType": "uint256",
          "name": "",
          "type": "uint256"
        }
      ],
      "stateMutability": "payable",
      "type": "function"
    },
    {
      "inputs": [
        {
          "internalType": "address",
          "name": "owner",
          "type": "address"
        },
        {
          "internalType": "address",
          "name": "spender",
          "type": "address"
        }
      ],
      "name": "allowance",
      "outputs": [
        {
          "internalType": "uint256",
          "name": "",
          "type": "uint256"
        }
      ],
      "stateMutability": "view",
      "type": "function"
    },
    {
      "inputs": [
        {
          "internalType": "address",
          "name": "spender",
          "type": "address"
        },
        {
          "internalType": "uint256",
          "name": "amount",
          "type": "uint256"
        }
      ],
      "name": "approve",
      "outputs": [
        {
          "internalType": "bool",
          "name": "",
          "type": "bool"
        }
      ],
      "stateMutability": "nonpayable",
      "type": "function"
    },
    {
      "inputs": [
        {
          "internalType": "address",
          "name": "account",
          "type": "address"
        }
      ],
      "name": "balanceOf",
      "outputs": [
        {
          "internalType": "uint256",
          "name": "",
          "type": "uint256"
        }
      ],
      "stateMutability": "view",
      "type": "function"
    },
    {
      "inputs": [],
      "name": "cryptoDevTokenAddress",
      "outputs": [
        {
          "internalType": "address",
          "name": "",
          "type": "address"
        }
      ],
      "stateMutability": "view",
      "type": "function"
    },
    {
      "inputs": [
        {
          "internalType": "uint256",
          "name": "_tokensSold",
          "type": "uint256"
        },
        {
          "internalType": "uint256",
          "name": "_minEth",
          "type": "uint256"
        }
      ],
      "name": "cryptoDevTokenToEth",
      "outputs": [],
      "stateMutability": "nonpayable",
      "type": "function"
    },
    {
      "inputs": [],
      "name": "decimals",
      "outputs": [
        {
          "internalType": "uint8",
          "name": "",
          "type": "uint8"
        }
      ],
      "stateMutability": "view",
      "type": "function"
    },
    {
      "inputs": [
        {
          "internalType": "address",
          "name": "spender",
          "type": "address"
        },
        {
          "internalType": "uint256",
          "name": "subtractedValue",
          "type": "uint256"
        }
      ],
      "name": "decreaseAllowance",
      "outputs": [
        {
          "internalType": "bool",
          "name": "",
          "type": "bool"
        }
      ],
      "stateMutability": "nonpayable",
      "type": "function"
    },
    {
      "inputs": [
        {
          "internalType": "uint256",
          "name": "_minTokens",
          "type": "uint256"
        }
      ],
      "name": "ethToCryptoDevToken",
      "outputs": [],
      "stateMutability": "payable",
      "type": "function"
    },
    {
      "inputs": [
        {
          "internalType": "uint256",
          "name": "inputAmount",
          "type": "uint256"
        },
        {
          "internalType": "uint256",
          "name": "inputReserve",
          "type": "uint256"
        },
        {
          "internalType": "uint256",
          "name": "outputReserve",
          "type": "uint256"
        }
      ],
      "name": "getAmountofTokens",
      "outputs": [
        {
          "internalType": "uint256",
          "name": "",
          "type": "uint256"
        }
      ],
      "stateMutability": "pure",
      "type": "function"
    },
    {
      "inputs": [],
      "name": "getReserve",
      "outputs": [
        {
          "internalType": "uint256",
          "name": "",
          "type": "uint256"
        }
      ],
      "stateMutability": "view",
      "type": "function"
    },
    {
      "inputs": [
        {
          "internalType": "address",
          "name": "spender",
          "type": "address"
        },
        {
          "internalType": "uint256",
          "name": "addedValue",
          "type": "uint256"
        }
      ],
      "name": "increaseAllowance",
      "outputs": [
        {
          "internalType": "bool",
          "name": "",
          "type": "bool"
        }
      ],
      "stateMutability": "nonpayable",
      "type": "function"
    },
    {
      "inputs": [],
      "name": "name",
      "outputs": [
        {
          "internalType": "string",
          "name": "",
          "type": "string"
        }
      ],
      "stateMutability": "view",
      "type": "function"
    },
    {
      "inputs": [
        {
          "internalType": "uint256",
          "name": "_amount",
          "type": "uint256"
        }
      ],
      "name": "removeLiquidity",
      "outputs": [
        {
          "internalType": "uint256",
          "name": "",
          "type": "uint256"
        },
        {
          "internalType": "uint256",
          "name": "",
          "type": "uint256"
        }
      ],
      "stateMutability": "nonpayable",
      "type": "function"
    },
    {
      "inputs": [],
      "name": "symbol",
      "outputs": [
        {
          "internalType": "string",
          "name": "",
          "type": "string"
        }
      ],
      "stateMutability": "view",
      "type": "function"
    },
    {
      "inputs": [],
      "name": "totalSupply",
      "outputs": [
        {
          "internalType": "uint256",
          "name": "",
          "type": "uint256"
        }
      ],
      "stateMutability": "view",
      "type": "function"
    },
    {
      "inputs": [
        {
          "internalType": "address",
          "name": "to",
          "type": "address"
        },
        {
          "internalType": "uint256",
          "name": "amount",
          "type": "uint256"
        }
      ],
      "name": "transfer",
      "outputs": [
        {
          "internalType": "bool",
          "name": "",
          "type": "bool"
        }
      ],
      "stateMutability": "nonpayable",
      "type": "function"
    },
    {
      "inputs": [
        {
          "internalType": "address",
          "name": "from",
          "type": "address"
        },
        {
          "internalType": "address",
          "name": "to",
          "type": "address"
        },
        {
          "internalType": "uint256",
          "name": "amount",
          "type": "uint256"
        }
      ],
      "name": "transferFrom",
      "outputs": [
        {
          "internalType": "bool",
          "name": "",
          "type": "bool"
        }
      ],
      "stateMutability": "nonpayable",
      "type": "function"
    }
  ],
  "transactionHash": "0x71eb62cd6d97717bddf603400263ee1b7608c7146b46d52dc0ac7023a4e271d9",
  "args": [
    "0xdaf6E3B8dA54c1cA9052e02be06868Eda7544a8C"
  ],
  "numDeployments": 1,
  "solcInputHash": "22e9087d2fa4a7b7c4d815b68c1d4559",
  "bytecode": "0x60806040523480156200001157600080fd5b50604051620029cf380380620029cf833981810160405281019062000037919062000259565b6040518060400160405280601281526020017f63727970746f446576204c5020546f6b656e00000000000000000000000000008152506040518060400160405280600481526020017f43444c50000000000000000000000000000000000000000000000000000000008152508160039080519060200190620000bb92919062000192565b508060049080519060200190620000d492919062000192565b505050600073ffffffffffffffffffffffffffffffffffffffff168173ffffffffffffffffffffffffffffffffffffffff1614156200014a576040517f08c379a00000000000000000000000000000000000000000000000000000000081526004016200014190620002b2565b60405180910390fd5b80600560006101000a81548173ffffffffffffffffffffffffffffffffffffffff021916908373ffffffffffffffffffffffffffffffffffffffff16021790555050620003c6565b828054620001a09062000319565b90600052602060002090601f016020900481019282620001c4576000855562000210565b82601f10620001df57805160ff191683800117855562000210565b8280016001018555821562000210579182015b828111156200020f578251825591602001919060010190620001f2565b5b5090506200021f919062000223565b5090565b5b808211156200023e57600081600090555060010162000224565b5090565b6000815190506200025381620003ac565b92915050565b6000602082840312156200027257620002716200037e565b5b6000620002828482850162000242565b91505092915050565b60006200029a601783620002d4565b9150620002a78262000383565b602082019050919050565b60006020820190508181036000830152620002cd816200028b565b9050919050565b600082825260208201905092915050565b6000620002f282620002f9565b9050919050565b600073ffffffffffffffffffffffffffffffffffffffff82169050919050565b600060028204905060018216806200033257607f821691505b602082108114156200034957620003486200034f565b5b50919050565b7f4e487b7100000000000000000000000000000000000000000000000000000000600052602260045260246000fd5b600080fd5b7f546f6b656e2061646472657373206e6f742076616c6964000000000000000000600082015250565b620003b781620002e5565b8114620003c357600080fd5b50565b6125f980620003d66000396000f3fe6080604052600436106101095760003560e01c80636c25a25a116100955780639e7a2922116100645780639e7a2922146103ad578063a457c2d7146103d8578063a9059cbb14610415578063dd62ed3e14610452578063f0566bb71461048f57610109565b80636c25a25a146102de57806370a082311461030757806395d89b41146103445780639c8f9f231461036f57610109565b8063313ce567116100dc578063313ce567146101de578063395093511461020957806351c6590a1461024657806359bf5d39146102765780636365f7b7146102a157610109565b806306fdde031461010e578063095ea7b31461013957806318160ddd1461017657806323b872dd146101a1575b600080fd5b34801561011a57600080fd5b506101236104ab565b6040516101309190611cf5565b60405180910390f35b34801561014557600080fd5b50610160600480360381019061015b91906118a6565b61053d565b60405161016d9190611cda565b60405180910390f35b34801561018257600080fd5b5061018b610560565b6040516101989190611ed7565b60405180910390f35b3480156101ad57600080fd5b506101c860048036038101906101c39190611853565b61056a565b6040516101d59190611cda565b60405180910390f35b3480156101ea57600080fd5b506101f3610599565b6040516102009190611f1b565b60405180910390f35b34801561021557600080fd5b50610230600480360381019061022b91906118a6565b6105a2565b60405161023d9190611cda565b60405180910390f35b610260600480360381019061025b9190611913565b6105d9565b60405161026d9190611ed7565b60405180910390f35b34801561028257600080fd5b5061028b6107f5565b6040516102989190611ed7565b60405180910390f35b3480156102ad57600080fd5b506102c860048036038101906102c391906119ad565b6108a7565b6040516102d59190611ed7565b60405180910390f35b3480156102ea57600080fd5b506103056004803603810190610300919061196d565b61094c565b005b34801561031357600080fd5b5061032e600480360381019061032991906117e6565b610aa9565b60405161033b9190611ed7565b60405180910390f35b34801561035057600080fd5b50610359610af1565b6040516103669190611cf5565b60405180910390f35b34801561037b57600080fd5b5061039660048036038101906103919190611913565b610b83565b6040516103a4929190611ef2565b60405180910390f35b3480156103b957600080fd5b506103c2610d27565b6040516103cf9190611c5f565b60405180910390f35b3480156103e457600080fd5b506103ff60048036038101906103fa91906118a6565b610d4d565b60405161040c9190611cda565b60405180910390f35b34801561042157600080fd5b5061043c600480360381019061043791906118a6565b610dc4565b6040516104499190611cda565b60405180910390f35b34801561045e57600080fd5b5061047960048036038101906104749190611813565b610de7565b6040516104869190611ed7565b60405180910390f35b6104a960048036038101906104a49190611913565b610e6e565b005b6060600380546104ba906120ef565b80601f01602080910402602001604051908101604052809291908181526020018280546104e6906120ef565b80156105335780601f1061050857610100808354040283529160200191610533565b820191906000526020600020905b81548152906001019060200180831161051657829003601f168201915b5050505050905090565b600080610548610f8c565b9050610555818585610f94565b600191505092915050565b6000600254905090565b600080610575610f8c565b905061058285828561115f565b61058d8585856111eb565b60019150509392505050565b60006012905090565b6000806105ad610f8c565b90506105ce8185856105bf8589610de7565b6105c99190611f52565b610f94565b600191505092915050565b6000806105e46107f5565b90506000804790506000600560009054906101000a900473ffffffffffffffffffffffffffffffffffffffff16905060008414156106be578073ffffffffffffffffffffffffffffffffffffffff166323b872dd3330896040518463ffffffff1660e01b815260040161065993929190611c7a565b602060405180830381600087803b15801561067357600080fd5b505af1158015610687573d6000803e3d6000fd5b505050506040513d601f19601f820116820180604052508101906106ab91906118e6565b508192506106b93384611463565b6107e9565b600034836106cc9190612033565b905060008186346106dd9190611fd9565b6106e79190611fa8565b90508088101561072c576040517f08c379a000000000000000000000000000000000000000000000000000000000815260040161072390611dd7565b60405180910390fd5b8273ffffffffffffffffffffffffffffffffffffffff166323b872dd3330846040518463ffffffff1660e01b815260040161076993929190611c7a565b602060405180830381600087803b15801561078357600080fd5b505af1158015610797573d6000803e3d6000fd5b505050506040513d601f19601f820116820180604052508101906107bb91906118e6565b5081346107c6610560565b6107d09190611fd9565b6107da9190611fa8565b94506107e63386611463565b50505b82945050505050919050565b6000600560009054906101000a900473ffffffffffffffffffffffffffffffffffffffff1673ffffffffffffffffffffffffffffffffffffffff166370a08231306040518263ffffffff1660e01b81526004016108529190611c5f565b60206040518083038186803b15801561086a57600080fd5b505afa15801561087e573d6000803e3d6000fd5b505050506040513d601f19601f820116820180604052508101906108a29190611940565b905090565b600080831180156108b85750600082115b6108f7576040517f08c379a00000000000000000000000000000000000000000000000000000000081526004016108ee90611db7565b60405180910390fd5b60006063856109069190611fd9565b9050600083826109169190611fd9565b90506000826064876109289190611fd9565b6109329190611f52565b905080826109409190611fa8565b93505050509392505050565b60006109566107f5565b905060006109658483476108a7565b9050828110156109aa576040517f08c379a00000000000000000000000000000000000000000000000000000000081526004016109a190611e37565b60405180910390fd5b600560009054906101000a900473ffffffffffffffffffffffffffffffffffffffff1673ffffffffffffffffffffffffffffffffffffffff166323b872dd3330876040518463ffffffff1660e01b8152600401610a0993929190611c7a565b602060405180830381600087803b158015610a2357600080fd5b505af1158015610a37573d6000803e3d6000fd5b505050506040513d601f19601f82011682018060405250810190610a5b91906118e6565b503373ffffffffffffffffffffffffffffffffffffffff166108fc829081150290604051600060405180830381858888f19350505050158015610aa2573d6000803e3d6000fd5b5050505050565b60008060008373ffffffffffffffffffffffffffffffffffffffff1673ffffffffffffffffffffffffffffffffffffffff168152602001908152602001600020549050919050565b606060048054610b00906120ef565b80601f0160208091040260200160405190810160405280929190818152602001828054610b2c906120ef565b8015610b795780601f10610b4e57610100808354040283529160200191610b79565b820191906000526020600020905b815481529060010190602001808311610b5c57829003601f168201915b5050505050905090565b60008060008311610bc9576040517f08c379a0000000000000000000000000000000000000000000000000000000008152600401610bc090611df7565b60405180910390fd5b6000610bd3610560565b905060004790506000828683610be99190611fd9565b610bf39190611fa8565b905060008387610c016107f5565b610c0b9190611fd9565b610c159190611fa8565b9050610c2133886115ba565b3373ffffffffffffffffffffffffffffffffffffffff166108fc839081150290604051600060405180830381858888f19350505050158015610c67573d6000803e3d6000fd5b50600560009054906101000a900473ffffffffffffffffffffffffffffffffffffffff1673ffffffffffffffffffffffffffffffffffffffff1663a9059cbb33836040518363ffffffff1660e01b8152600401610cc5929190611cb1565b602060405180830381600087803b158015610cdf57600080fd5b505af1158015610cf3573d6000803e3d6000fd5b505050506040513d601f19601f82011682018060405250810190610d1791906118e6565b5081819550955050505050915091565b600560009054906101000a900473ffffffffffffffffffffffffffffffffffffffff1681565b600080610d58610f8c565b90506000610d668286610de7565b905083811015610dab576040517f08c379a0000000000000000000000000000000000000000000000000000000008152600401610da290611e97565b60405180910390fd5b610db88286868403610f94565b60019250505092915050565b600080610dcf610f8c565b9050610ddc8185856111eb565b600191505092915050565b6000600160008473ffffffffffffffffffffffffffffffffffffffff1673ffffffffffffffffffffffffffffffffffffffff16815260200190815260200160002060008373ffffffffffffffffffffffffffffffffffffffff1673ffffffffffffffffffffffffffffffffffffffff16815260200190815260200160002054905092915050565b6000610e786107f5565b90506000610e92343447610e8c9190612033565b846108a7565b905082811015610ed7576040517f08c379a0000000000000000000000000000000000000000000000000000000008152600401610ece90611e37565b60405180910390fd5b600560009054906101000a900473ffffffffffffffffffffffffffffffffffffffff1673ffffffffffffffffffffffffffffffffffffffff1663a9059cbb33836040518363ffffffff1660e01b8152600401610f34929190611cb1565b602060405180830381600087803b158015610f4e57600080fd5b505af1158015610f62573d6000803e3d6000fd5b505050506040513d601f19601f82011682018060405250810190610f8691906118e6565b50505050565b600033905090565b600073ffffffffffffffffffffffffffffffffffffffff168373ffffffffffffffffffffffffffffffffffffffff161415611004576040517f08c379a0000000000000000000000000000000000000000000000000000000008152600401610ffb90611e77565b60405180910390fd5b600073ffffffffffffffffffffffffffffffffffffffff168273ffffffffffffffffffffffffffffffffffffffff161415611074576040517f08c379a000000000000000000000000000000000000000000000000000000000815260040161106b90611d57565b60405180910390fd5b80600160008573ffffffffffffffffffffffffffffffffffffffff1673ffffffffffffffffffffffffffffffffffffffff16815260200190815260200160002060008473ffffffffffffffffffffffffffffffffffffffff1673ffffffffffffffffffffffffffffffffffffffff168152602001908152602001600020819055508173ffffffffffffffffffffffffffffffffffffffff168373ffffffffffffffffffffffffffffffffffffffff167f8c5be1e5ebec7d5bd14f71427d1e84f3dd0314c0f7b2291e5b200ac8c7c3b925836040516111529190611ed7565b60405180910390a3505050565b600061116b8484610de7565b90507fffffffffffffffffffffffffffffffffffffffffffffffffffffffffffffffff81146111e557818110156111d7576040517f08c379a00000000000000000000000000000000000000000000000000000000081526004016111ce90611d77565b60405180910390fd5b6111e48484848403610f94565b5b50505050565b600073ffffffffffffffffffffffffffffffffffffffff168373ffffffffffffffffffffffffffffffffffffffff16141561125b576040517f08c379a000000000000000000000000000000000000000000000000000000000815260040161125290611e57565b60405180910390fd5b600073ffffffffffffffffffffffffffffffffffffffff168273ffffffffffffffffffffffffffffffffffffffff1614156112cb576040517f08c379a00000000000000000000000000000000000000000000000000000000081526004016112c290611d17565b60405180910390fd5b6112d6838383611788565b60008060008573ffffffffffffffffffffffffffffffffffffffff1673ffffffffffffffffffffffffffffffffffffffff1681526020019081526020016000205490508181101561135c576040517f08c379a000000000000000000000000000000000000000000000000000000000815260040161135390611d97565b60405180910390fd5b8181036000808673ffffffffffffffffffffffffffffffffffffffff1673ffffffffffffffffffffffffffffffffffffffff16815260200190815260200160002081905550816000808573ffffffffffffffffffffffffffffffffffffffff1673ffffffffffffffffffffffffffffffffffffffff168152602001908152602001600020600082825401925050819055508273ffffffffffffffffffffffffffffffffffffffff168473ffffffffffffffffffffffffffffffffffffffff167fddf252ad1be2c89b69c2b068fc378daa952ba7f163c4a11628f55a4df523b3ef8460405161144a9190611ed7565b60405180910390a361145d84848461178d565b50505050565b600073ffffffffffffffffffffffffffffffffffffffff168273ffffffffffffffffffffffffffffffffffffffff1614156114d3576040517f08c379a00000000000000000000000000000000000000000000000000000000081526004016114ca90611eb7565b60405180910390fd5b6114df60008383611788565b80600260008282546114f19190611f52565b92505081905550806000808473ffffffffffffffffffffffffffffffffffffffff1673ffffffffffffffffffffffffffffffffffffffff168152602001908152602001600020600082825401925050819055508173ffffffffffffffffffffffffffffffffffffffff16600073ffffffffffffffffffffffffffffffffffffffff167fddf252ad1be2c89b69c2b068fc378daa952ba7f163c4a11628f55a4df523b3ef836040516115a29190611ed7565b60405180910390a36115b66000838361178d565b5050565b600073ffffffffffffffffffffffffffffffffffffffff168273ffffffffffffffffffffffffffffffffffffffff16141561162a576040517f08c379a000000000000000000000000000000000000000000000000000000000815260040161162190611e17565b60405180910390fd5b61163682600083611788565b60008060008473ffffffffffffffffffffffffffffffffffffffff1673ffffffffffffffffffffffffffffffffffffffff168152602001908152602001600020549050818110156116bc576040517f08c379a00000000000000000000000000000000000000000000000000000000081526004016116b390611d37565b60405180910390fd5b8181036000808573ffffffffffffffffffffffffffffffffffffffff1673ffffffffffffffffffffffffffffffffffffffff1681526020019081526020016000208190555081600260008282540392505081905550600073ffffffffffffffffffffffffffffffffffffffff168373ffffffffffffffffffffffffffffffffffffffff167fddf252ad1be2c89b69c2b068fc378daa952ba7f163c4a11628f55a4df523b3ef8460405161176f9190611ed7565b60405180910390a36117838360008461178d565b505050565b505050565b505050565b6000813590506117a18161257e565b92915050565b6000815190506117b681612595565b92915050565b6000813590506117cb816125ac565b92915050565b6000815190506117e0816125ac565b92915050565b6000602082840312156117fc576117fb6121ae565b5b600061180a84828501611792565b91505092915050565b6000806040838503121561182a576118296121ae565b5b600061183885828601611792565b925050602061184985828601611792565b9150509250929050565b60008060006060848603121561186c5761186b6121ae565b5b600061187a86828701611792565b935050602061188b86828701611792565b925050604061189c868287016117bc565b9150509250925092565b600080604083850312156118bd576118bc6121ae565b5b60006118cb85828601611792565b92505060206118dc858286016117bc565b9150509250929050565b6000602082840312156118fc576118fb6121ae565b5b600061190a848285016117a7565b91505092915050565b600060208284031215611929576119286121ae565b5b6000611937848285016117bc565b91505092915050565b600060208284031215611956576119556121ae565b5b6000611964848285016117d1565b91505092915050565b60008060408385031215611984576119836121ae565b5b6000611992858286016117bc565b92505060206119a3858286016117bc565b9150509250929050565b6000806000606084860312156119c6576119c56121ae565b5b60006119d4868287016117bc565b93505060206119e5868287016117bc565b92505060406119f6868287016117bc565b9150509250925092565b611a0981612067565b82525050565b611a1881612079565b82525050565b6000611a2982611f36565b611a338185611f41565b9350611a438185602086016120bc565b611a4c816121b3565b840191505092915050565b6000611a64602383611f41565b9150611a6f826121c4565b604082019050919050565b6000611a87602283611f41565b9150611a9282612213565b604082019050919050565b6000611aaa602283611f41565b9150611ab582612262565b604082019050919050565b6000611acd601d83611f41565b9150611ad8826122b1565b602082019050919050565b6000611af0602683611f41565b9150611afb826122da565b604082019050919050565b6000611b13600f83611f41565b9150611b1e82612329565b602082019050919050565b6000611b36603983611f41565b9150611b4182612352565b604082019050919050565b6000611b59602283611f41565b9150611b64826123a1565b604082019050919050565b6000611b7c602183611f41565b9150611b87826123f0565b604082019050919050565b6000611b9f601a83611f41565b9150611baa8261243f565b602082019050919050565b6000611bc2602583611f41565b9150611bcd82612468565b604082019050919050565b6000611be5602483611f41565b9150611bf0826124b7565b604082019050919050565b6000611c08602583611f41565b9150611c1382612506565b604082019050919050565b6000611c2b601f83611f41565b9150611c3682612555565b602082019050919050565b611c4a816120a5565b82525050565b611c59816120af565b82525050565b6000602082019050611c746000830184611a00565b92915050565b6000606082019050611c8f6000830186611a00565b611c9c6020830185611a00565b611ca96040830184611c41565b949350505050565b6000604082019050611cc66000830185611a00565b611cd36020830184611c41565b9392505050565b6000602082019050611cef6000830184611a0f565b92915050565b60006020820190508181036000830152611d0f8184611a1e565b905092915050565b60006020820190508181036000830152611d3081611a57565b9050919050565b60006020820190508181036000830152611d5081611a7a565b9050919050565b60006020820190508181036000830152611d7081611a9d565b9050919050565b60006020820190508181036000830152611d9081611ac0565b9050919050565b60006020820190508181036000830152611db081611ae3565b9050919050565b60006020820190508181036000830152611dd081611b06565b9050919050565b60006020820190508181036000830152611df081611b29565b9050919050565b60006020820190508181036000830152611e1081611b4c565b9050919050565b60006020820190508181036000830152611e3081611b6f565b9050919050565b60006020820190508181036000830152611e5081611b92565b9050919050565b60006020820190508181036000830152611e7081611bb5565b9050919050565b60006020820190508181036000830152611e9081611bd8565b9050919050565b60006020820190508181036000830152611eb081611bfb565b9050919050565b60006020820190508181036000830152611ed081611c1e565b9050919050565b6000602082019050611eec6000830184611c41565b92915050565b6000604082019050611f076000830185611c41565b611f146020830184611c41565b9392505050565b6000602082019050611f306000830184611c50565b92915050565b600081519050919050565b600082825260208201905092915050565b6000611f5d826120a5565b9150611f68836120a5565b9250827fffffffffffffffffffffffffffffffffffffffffffffffffffffffffffffffff03821115611f9d57611f9c612121565b5b828201905092915050565b6000611fb3826120a5565b9150611fbe836120a5565b925082611fce57611fcd612150565b5b828204905092915050565b6000611fe4826120a5565b9150611fef836120a5565b9250817fffffffffffffffffffffffffffffffffffffffffffffffffffffffffffffffff048311821515161561202857612027612121565b5b828202905092915050565b600061203e826120a5565b9150612049836120a5565b92508282101561205c5761205b612121565b5b828203905092915050565b600061207282612085565b9050919050565b60008115159050919050565b600073ffffffffffffffffffffffffffffffffffffffff82169050919050565b6000819050919050565b600060ff82169050919050565b60005b838110156120da5780820151818401526020810190506120bf565b838111156120e9576000848401525b50505050565b6000600282049050600182168061210757607f821691505b6020821081141561211b5761211a61217f565b5b50919050565b7f4e487b7100000000000000000000000000000000000000000000000000000000600052601160045260246000fd5b7f4e487b7100000000000000000000000000000000000000000000000000000000600052601260045260246000fd5b7f4e487b7100000000000000000000000000000000000000000000000000000000600052602260045260246000fd5b600080fd5b6000601f19601f8301169050919050565b7f45524332303a207472616e7366657220746f20746865207a65726f206164647260008201527f6573730000000000000000000000000000000000000000000000000000000000602082015250565b7f45524332303a206275726e20616d6f756e7420657863656564732062616c616e60008201527f6365000000000000000000000000000000000000000000000000000000000000602082015250565b7f45524332303a20617070726f766520746f20746865207a65726f20616464726560008201527f7373000000000000000000000000000000000000000000000000000000000000602082015250565b7f45524332303a20696e73756666696369656e7420616c6c6f77616e6365000000600082015250565b7f45524332303a207472616e7366657220616d6f756e742065786365656473206260008201527f616c616e63650000000000000000000000000000000000000000000000000000602082015250565b7f696e76616c696420616464726573730000000000000000000000000000000000600082015250565b7f416d6f756e74206f6620746f6b656e73206973206c657373207468616e20746860008201527f65206d696e696d756d20746f6b656e7320726571756972656400000000000000602082015250565b7f416d6f756e742073686f756c642062652067726561746572207468616e207a6560008201527f726f000000000000000000000000000000000000000000000000000000000000602082015250565b7f45524332303a206275726e2066726f6d20746865207a65726f2061646472657360008201527f7300000000000000000000000000000000000000000000000000000000000000602082015250565b7f696e73756666696369656e74206f757470757420616d6f756e74000000000000600082015250565b7f45524332303a207472616e736665722066726f6d20746865207a65726f20616460008201527f6472657373000000000000000000000000000000000000000000000000000000602082015250565b7f45524332303a20617070726f76652066726f6d20746865207a65726f2061646460008201527f7265737300000000000000000000000000000000000000000000000000000000602082015250565b7f45524332303a2064656372656173656420616c6c6f77616e63652062656c6f7760008201527f207a65726f000000000000000000000000000000000000000000000000000000602082015250565b7f45524332303a206d696e7420746f20746865207a65726f206164647265737300600082015250565b61258781612067565b811461259257600080fd5b50565b61259e81612079565b81146125a957600080fd5b50565b6125b5816120a5565b81146125c057600080fd5b5056fea2646970667358221220e93e952abfa463cd000f2e8828752327ec4aa289852b92686051c84e4584245964736f6c63430008070033",
  "devdoc": {
    "kind": "dev",
    "methods": {
      "allowance(address,address)": {
        "details": "See {IERC20-allowance}."
      },
      "approve(address,uint256)": {
        "details": "See {IERC20-approve}. NOTE: If `amount` is the maximum `uint256`, the allowance is not updated on `transferFrom`. This is semantically equivalent to an infinite approval. Requirements: - `spender` cannot be the zero address."
      },
      "balanceOf(address)": {
        "details": "See {IERC20-balanceOf}."
      },
      "decimals()": {
        "details": "Returns the number of decimals used to get its user representation. For example, if `decimals` equals `2`, a balance of `505` tokens should be displayed to a user as `5.05` (`505 / 10 ** 2`). Tokens usually opt for a value of 18, imitating the relationship between Ether and Wei. This is the value {ERC20} uses, unless this function is overridden; NOTE: This information is only used for _display_ purposes: it in no way affects any of the arithmetic of the contract, including {IERC20-balanceOf} and {IERC20-transfer}."
      },
      "decreaseAllowance(address,uint256)": {
        "details": "Atomically decreases the allowance granted to `spender` by the caller. This is an alternative to {approve} that can be used as a mitigation for problems described in {IERC20-approve}. Emits an {Approval} event indicating the updated allowance. Requirements: - `spender` cannot be the zero address. - `spender` must have allowance for the caller of at least `subtractedValue`."
      },
      "increaseAllowance(address,uint256)": {
        "details": "Atomically increases the allowance granted to `spender` by the caller. This is an alternative to {approve} that can be used as a mitigation for problems described in {IERC20-approve}. Emits an {Approval} event indicating the updated allowance. Requirements: - `spender` cannot be the zero address."
      },
      "name()": {
        "details": "Returns the name of the token."
      },
      "symbol()": {
        "details": "Returns the symbol of the token, usually a shorter version of the name."
      },
      "totalSupply()": {
        "details": "See {IERC20-totalSupply}."
      },
      "transfer(address,uint256)": {
        "details": "See {IERC20-transfer}. Requirements: - `to` cannot be the zero address. - the caller must have a balance of at least `amount`."
      },
      "transferFrom(address,address,uint256)": {
        "details": "See {IERC20-transferFrom}. Emits an {Approval} event indicating the updated allowance. This is not required by the EIP. See the note at the beginning of {ERC20}. NOTE: Does not update the allowance if the current allowance is the maximum `uint256`. Requirements: - `from` and `to` cannot be the zero address. - `from` must have a balance of at least `amount`. - the caller must have allowance for ``from``'s tokens of at least `amount`."
      }
    },
    "version": 1
  },
  "userdoc": {
    "kind": "user",
    "methods": {},
    "version": 1
  },
  "storageLayout": {
    "storage": [
      {
        "astId": 15,
        "contract": "contracts/Exchange.sol:Exchange",
        "label": "_balances",
        "offset": 0,
        "slot": "0",
        "type": "t_mapping(t_address,t_uint256)"
      },
      {
        "astId": 21,
        "contract": "contracts/Exchange.sol:Exchange",
        "label": "_allowances",
        "offset": 0,
        "slot": "1",
        "type": "t_mapping(t_address,t_mapping(t_address,t_uint256))"
      },
      {
        "astId": 23,
        "contract": "contracts/Exchange.sol:Exchange",
        "label": "_totalSupply",
        "offset": 0,
        "slot": "2",
        "type": "t_uint256"
      },
      {
        "astId": 25,
        "contract": "contracts/Exchange.sol:Exchange",
        "label": "_name",
        "offset": 0,
        "slot": "3",
        "type": "t_string_storage"
      },
      {
        "astId": 27,
        "contract": "contracts/Exchange.sol:Exchange",
        "label": "_symbol",
        "offset": 0,
        "slot": "4",
        "type": "t_string_storage"
      },
      {
        "astId": 718,
        "contract": "contracts/Exchange.sol:Exchange",
        "label": "cryptoDevTokenAddress",
        "offset": 0,
        "slot": "5",
        "type": "t_address"
      }
    ],
    "types": {
      "t_address": {
        "encoding": "inplace",
        "label": "address",
        "numberOfBytes": "20"
      },
      "t_mapping(t_address,t_mapping(t_address,t_uint256))": {
        "encoding": "mapping",
        "key": "t_address",
        "label": "mapping(address => mapping(address => uint256))",
        "numberOfBytes": "32",
        "value": "t_mapping(t_address,t_uint256)"
      },
      "t_mapping(t_address,t_uint256)": {
        "encoding": "mapping",
        "key": "t_address",
        "label": "mapping(address => uint256)",
        "numberOfBytes": "32",
        "value": "t_uint256"
      },
      "t_string_storage": {
        "encoding": "bytes",
        "label": "string",
        "numberOfBytes": "32"
      },
      "t_uint256": {
        "encoding": "inplace",
        "label": "uint256",
        "numberOfBytes": "32"
      }
    }
  }
}